:060000000A128A110C280F
:10000800FE00030EF0000A08F1000A128A11F32814
:100018000A128A110F28FA0183010A128A11142878
:100028000A128A1103210A128A110A128A11E3207C
:100038000A128A111A3083120313A6005E30A50033
:100048006D30A400A40B2628A50B2628A60B26286D
:100058002D281A3083120313A6005E30A5006D30D8
:10006800A400A40B3528A50B3528A60B35283C2859
:100078001A3083120313A6005E30A5006D30A40069
:10008800A40B4428A50B4428A60B44284B287A081F
:1000980083120313A400A5012408F6002508F7001D
:1000A8000A128A116C200A128A111A308312031359
:1000B800A6005E30A5006D30A400A40B6128A50B36
:1000C8006128A60B612868281E280A128A110C28A4
:1000D8007608F2007708F3000A128A11AD200A1296
:1000E8008A11730883120313A1007208A000A201E9
:1000F800A301A2280C1E81288228912822087607AD
:10010800840023080318230A7707FF000A128A11BC
:10011800D1200A128A1199000C124130F900EE30F0
:10012800F800F80B9528F90B952800000130831288
:100138000313A2070318A30A0030A3072108230208
:10014800031DA82820082202031CAB28AC287E28FF
:1001580008007208F4007308F500B8280130F407A5
:100168000318F50A0030F507750883120313FF001A
:10017800740884000A128A11D1200A128A11003ADE
:10018800031DC728C828B22872087402F200730831
:10019800031C730A7502F3000800FF1BDB28831396
:1001A8007F1883170008840A0319FF0A08007F08CC
:1001B8007F398A000408840A0319FF0A82008B1712
:1001C8000B17831603138C16243098009030831273
:1001D80003139800813083160313990008008312D3
:1001E80003138C1EF828F928FC281A08FA008C1228
:1001F80071088A00700E8300FE0E7E0E09008316B9
:06020800031306100800BC
:08400000FF3FFF3FFF3FFF3FC0
:02400E00FB3F76
:00000001FF
