:060000000A128A110C280F
:10000800FE00030EF0000A08F1000A128A111328F4
:100018000A128A110F2883010A128A112E288B1CB2
:10002800162817282728031083120313071C031404
:1000380003181F2823288312031307142628831262
:10004800031307108B1071088A00700E8300FE0ED0
:100058007E0E09000A128A1143200A128A110A1216
:100068008A113C200A128A1138280A128A110C288F
:100078008B170B170B16831603130117080083162B
:060088000313071008003D
:08400000FF3FFF3FFF3FFF3FC0
:02400E00FB3F76
:00000001FF
