:100000000A128A11F92FFF1B0D2883137F188317FB
:100010000008840A0319FF0A080000308A00040857
:10002000840A82070034013400340A340034643412
:100030000034E834033410342734643461347434C5
:10004000613420343D34203400342034463461346B
:0E005000683479346D3400342534643400345F
:1009AA0083160313860178308700080070088312C3
:1009BA0003178D00831603178C130C148312031765
:1009CA000C0883120313BC000800F200700883129B
:1009DA0003178D0072088C00831603178C130C15ED
:1009EA0055308D00AA308D008C14831203130D1E0E
:1009FA00FF2C002DFA2C0D0808001A30831203135D
:100A0A00A0002E08A2002D08A1002F300A128A1178
:100A1A001F270A128A112F30F4000030F5000A123B
:100A2A008A115D250A128A11080002300A128A11F7
:100A3A0088250A128A1128300A128A1188250A1270
:100A4A008A110C300A128A1188250A128A11043076
:100A5A000A128A1188250A128A1101300A128A1189
:100A6A0088250A128A1108007008F2007108F3003A
:100A7A00442D0130F2070318F30A0030F307730814
:100A8A0083120313FF00720884000A128A110320DA
:100A9A000A128A11003A031D532D542D3E2D700857
:100AAA007202F0007108031C710A7302F100080057
:100ABA007408F0007508F1000A128A1139250A1221
:100ACA008A117008F700F801812D780874078400EC
:100ADA0075080318750A83120313FF000A128A1194
:100AEA0003200A128A110A128A11B9250A128A11D6
:100AFA000130F6007608F80777087802031C862D7D
:100B0A00872D6A2D0800F2007208F0398312031348
:100B1A0086000615861006100D30F100FB30F00035
:100B2A00F00B952DF10B952D9A2D831203130611B7
:100B3A007208F00003300310F00DFF3E031DA02DD4
:100B4A000310700DF03986000615861006100D3058
:100B5A00F100FB30F000F00BB02DF10BB02DB52DEC
:100B6A008312031306110800F2007208F039831287
:100B7A00031386000615861006140D30F100FB30AB
:100B8A00F000F00BC62DF10BC62DCB2D83120313EB
:100B9A0006117208F00003300310F00DFF3E031D2A
:100BAA00D12D0310700DF039860006158610061433
:100BBA000D30F100FB30F000F00BE12DF10BE12DCF
:100BCA00E62D831203130611080078087904031925
:100BDA00EF2DF02D1F2EFD01FD0AFE2D0130031011
:100BEA00F80DF90DFF3E031DF42D0130FC007C08C1
:100BFA00FD07F91F012E022EF32D79087B02031D32
:100C0A00082E78087A02031C0B2E0C2E122E780856
:100C1A00FA027908031CFB03FB0201300310F90CEA
:100C2A00F80CFF3E031D132E0130FD02031D1E2E7C
:100C3A001F2E022E7B08F9007A08F8000800F50139
:100C4A00F6017008710403192B2E2C2E632EF7015E
:100C5A00F70A3A2E01300310F00DF10DFF3E031D85
:100C6A00302E0130F4007408F707F11F3D2E3E2E96
:100C7A002F2E01300310F50DF60DFF3E031D3F2EFA
:100C8A0071087302031D4B2E70087202031C4E2E4C
:100C9A004F2E562E7008F2027108031CF303F3025A
:100CAA00751401300310F10CF00CFF3E031D572E92
:100CBA000130F702031D622E632E3E2E7608F100E4
:100CCA007508F00008000A128A11D5240A128A113E
:100CDA000A128A111A250A128A111330F400803076
:100CEA00F5000A128A115D250A128A11AA30F0004B
:100CFA000030F10007300A128A11EA240A128A1116
:100D0A00AA30F0000030F1000A128A11DB240A121C
:100D1A008A111A3083120313BB005E30BA006D3099
:100D2A00B900B90B962EBA0B962EBB0B962E9D2E9A
:100D3A001A3083120313BB005E30BA006D30B9005B
:100D4A00B90BA52EBA0BA52EBB0BA52EAC2EAA301D
:100D5A00F0000030F10007300A128A11EA240A1260
:100D6A008A11AA30F0000030F1000A128A11DB243D
:100D7A000A128A1180300A128A1188250A128A11E7
:100D8A000B30F4008030F5000A128A115D250A1230
:100D9A008A11831203133C08B900BA013908AD005D
:100DAA003A08AE000A128A1102250A128A111A306A
:100DBA0083120313BB005E30BA006D30B900B90B61
:100DCA00E42EBA0BE42EBB0BE42EEB2EAA30F00075
:100DDA000030F1000C300A128A11EA240A128A1130
:100DEA00AA30F0000030F1000A128A11DB240A123C
:100DFA008A1180300A128A1188250A128A110B3048
:100E0A00F4008030F5000A128A115D250A128A114F
:100E1A00831203133C08B900BA013908AD003A0835
:100E2A00AE000A128A1102250A128A119D2E0A128E
:100E3A008A11002883120313AB002130A600E42F85
:100E4A0025302C0603192A2F2B2F352F2B08840027
:100E5A002C08831380000130A3002308AB07E42F7A
:100E6A00A7010130A007FF30200784000A128A1167
:100E7A000D200A128A11AC00A300A4012408003A2A
:100E8A000319482FE42F2308003A0319F42F643A70
:100E9A000319532F0D3A0319532FE42F2608840000
:100EAA0083130008A900840A0008AA000230A300DC
:100EBA002308A607AA1F622F632F6C2F0330A300F3
:100ECA002308A704A909AA09A90A0319AA0AAC01AD
:100EDA00AC0A2C08A3002307013E84000A128A11D7
:100EEA000D200A128A11A4000A128A110D200A1270
:100EFA008A11A50025082A02031D852F2408290224
:100F0A000318882F892F8A2F942F0130A3002308D2
:100F1A00AC0705302C06031D932F942F6E2F27083C
:100F2A0003390319992F9A2FA32F2B0884002D30E8
:100F3A00831380000130A3002308AB072C08A80004
:100F4A00DB2F0A30F8000030F9002808A300230735
:100F5A00013E84000A128A110D200A128A11F00039
:100F6A000A128A110D200A128A11F1002A08F300C6
:100F7A002908F2000A128A1124260A128A11710813
:100F8A00FB007008FA000A128A11EA250A128A116D
:100F9A007808303E83120313AC002B0884002C0817
:100FAA00831380000130A3002308AB07FF30A3009E
:100FBA002308A807280A031DE32FE42FA62F0130D0
:100FCA00A007FF30200784000A128A110D200A1296
:100FDA008A11AC002C08031DF32FF42F252F2B08A0
:100FEA00840083138001080083120313BC01830168
:060FFA000A128A11682EA4
:08400000FF3FFF3FFF3FFF3FC0
:02400E00FB3F76
:00000001FF
