:060000000A128A110E280D
:10000800FE00030EF2000A08F3007F08F4000A124B
:100018008A1124280A128A1111288313583084005F
:1000280070300A128A1590260A128A118316031351
:10003800A001A101A201A30183010A128A11EA2BDE
:10004800F501831203139F192A282B2835281F1A14
:100058002E282F2835289F1A322833283528F501CD
:10006800F50A7508F000F00EF00DF00D0C0870069A
:10007800BF3970068C000C0EF100F10C710C0139BF
:10008800003A03194828492863281E08F000F1019E
:100098007008F100F0017008EE007108EF00831697
:1000A80003131E08831203136E07F0006F0803186A
:1000B8006F0AF1007008EE007108EF000C13F601EA
:1000C8009F1D6728682872281F1A6B286C287228B9
:1000D8009F1A6F2870287228F601F60A7608F00031
:1000E800F00EF00DF00D0C087006BF3970068C008C
:1000F8000C0EF100F10C710C0139003A0319852836
:100108008628A0281E08F000F1017008F100F0010F
:100118007008EC007108ED00831603131E088312A3
:1001280003136C07F0006D0803186D0AF1007008DE
:10013800EC007108ED000C13F7019F19A428A528FD
:10014800AF281F1EA828A928AF289F1AAC28AD28B9
:10015800AF28F701F70A7708F000F00EF00DF00D60
:100168000C087006BF3970068C000C0EF100F10CFB
:10017800710C0139003A0319C228C328DD281E086A
:10018800F000F1017008F100F0017008EA00710850
:10019800EB00831603131E08831203136A07F0008B
:1001A8006B0803186B0AF1007008EA007108EB008D
:1001B8000C13F8019F1DE128E228EC281F1EE528F2
:1001C800E628EC289F1AE928EA28EC28F801F80A1A
:1001D8007808F000F00EF00DF00D0C087006BF392D
:1001E80070068C000C0EF100F10C710C0139003A0C
:1001F8000319FF2800291A291E08F000F1017008C8
:10020800F100F0017008E8007108E9008316031393
:100218001E08831203136807F00069080318690AA7
:10022800F1007008E8007108E9000C13F9019F1942
:100238001E291F2929291F1A2229232929299F1EF6
:10024800262927292929F901F90A7908F000F00E49
:10025800F00DF00D0C087006BF3970068C000C0EFE
:10026800F100F10C710C0139003A03193C293D29C0
:1002780057291E08F000F1017008F100F00170081C
:10028800E6007108E700831603131E0883120313A0
:100298006607F00067080318670AF1007008E600AF
:1002A8007108E7000C13FA019F1D5B295C29662978
:1002B8001F1A5F29602966299F1E632964296629F8
:1002C800FA01FA0A7A08F000F00EF00DF00D0C08A9
:1002D8007006BF3970068C000C0EF100F10C710C21
:1002E8000139003A031979297A2994291E08F0005E
:1002F800F1017008F100F0017008E4007108E500F0
:10030800831603131E08831203136407F00065089D
:100318000318650AF1007008E4007108E5000C1381
:10032800FB019F1998299929A3291F1E9C299D29FA
:10033800A3299F1EA029A129A329FB01FB0A7B0849
:10034800F000F00EF00DF00D0C087006BF397006C5
:100358008C000C0EF100F10C710C0139003A0319F4
:10036800B629B729D1291E08F000F1017008F1005B
:10037800F0017008E2007108E300831603131E08F9
:10038800831203136207F00063080318630AF1007D
:100398007008E2007108E3000C13FC019F1DD529C9
:1003A800D629E0291F1ED929DA29E0299F1EDD292F
:1003B800DE29E029FC01FC0A7C08F000F00EF00DB3
:1003C800F00D0C087006BF3970068C000C0EF10099
:1003D800F10C710C0139003A0319F329F4290E2A9A
:1003E8001E08F000F1017008F100F0017008E0004B
:1003F8007108E100831603131E08831203136007B4
:10040800F00061080318610AF1007008E000710843
:10041800E1000C137408FF0073088A00720E830051
:10042800FE0E7E0E09008312031335088039BF00C3
:100438003508B6003607C600B41F232A242A252A01
:10044800461446080319292A2A2A3A2A460A031D65
:100458002E2A2F2A372A0030B5000030B400003089
:10046800B3000030B200B417B501422A0030B5001D
:100478000030B4000030B3000030B20031088039D9
:10048800B6003608BF063108B6003607C700B01FE9
:100498004E2A4F2A502A471447080319542A552A26
:1004A800652A470A031D592A5A2A622A0030B100D0
:1004B8000030B0000030AF000030AE00B017B1011E
:1004C8006D2A0030B1000030B0000030AF000030BD
:1004D800AE00310830042F042E04031D742A752A37
:1004E8008E2A0030B5000030B4000030B300003070
:1004F800B2008030B4047F30B5043F08B600360837
:10050800B5043508B1003408B0003308AF0032082C
:10051800AE00E92B4608031D922A932A9C2A003034
:10052800B1000030B0000030AF000030AE00E92B61
:100538004608B600B7013708B90047083602B800C0
:10054800031CB90338087F3EC00039080318013E70
:10055800003EC1003508BE003408BD003308BC00A9
:100568003208BB000030B5000030B4000030B300E2
:100578000030B2000030C5000030C4000030C300B5
:100588000030C200C701122B47080319CC2ACD2A14
:10059800ED2A0130B6000310BB0DBC0DBD0DBE0D1C
:1005A800B60BCF2A0130B6000310B20DB30DB40D4F
:1005B800B50DB60BD82AC51FE22AE32AE42A32145D
:1005C8000130B6000310C20DC30DC40DC50DB60B26
:1005D800E62A31083E02031DFB2A30083D02031DAE
:1005E800FB2A2F083C02031DFB2A2E083B02031C92
:1005F800FE2AFF2A0E2B45172E08BB022F08031CC4
:100608002F0FBC023008031C300FBD023108031C39
:10061800310FBE020130B6003608C7071A3047024C
:10062800031C172B182BC82A3E083D043C043B0426
:1006380003191F2B202B3F2B42143F2B0130B600F0
:100648000310B20DB30DB40DB50DB60B242BC51F99
:100658002E2B2F2B302B32140130B6000310C20D75
:10066800C30DC40DC50DB60B322BFF30C0070318E0
:10067800C10AFF30C107B41F422B432B222BC701ED
:10068800C51F472B482B642BFF304205B600FF30AF
:100698004305B700FF304405B8007F304505B90071
:1006A800390838043704360403195B2B5C2B5F2B9D
:1006B800C701C70A642B321C622B632B642B5C2B8B
:1006C80047080319682B692B9A2B0130B2070030B1
:1006D80003180130B307003003180130B4070030A5
:1006E80003180130B507351C7A2B7B2B9A2B32085F
:1006F800B6003308B7003408B8003508B90001302F
:10070800BA00390DB90CB80CB70CB60CBA0B852B5E
:100718003908B5003808B4003708B3003608B20005
:100728000130C0070318C10A0030C1074108803AE8
:10073800FF0080307F02031DA32BFF304002031C03
:10074800A62BA72BB52BFF3083120313C000003054
:10075800C1000030B5000030B4000030B3000030F4
:10076800B200831203134108803AFF0080307F02F1
:10077800031DC02B013040020318C32BC42BD12BFF
:1007880083120313C001C1010030B5000030B4006A
:100798000030B3000030B200BF01831203134008D9
:1007A800C600461CD82BD92BDB2BB417DF2B7F3088
:1007B800B6003608B4054608B6000310360CB50076
:1007C8003F08B6003608B504852A08000A128A15BB
:1007D80088260A128A110A128A1598260A128A117C
:1007E8000A128A15A6260A128A1136300A128A11A6
:1007F80026270A128A11831203132108D30020081E
:10080800D2005208A0005308A1000030A11BFF30FD
:10081800A200A30001300A128A11F4250A128A11D3
:10082800831203132308B5002208B4002108B3007B
:100838002008B2004030B1000230B000F130AF0003
:10084800AA30AE000A128A1117220A128A118312DC
:1008580003133108CB003008CA002F08C9002E083E
:10086800C8000A128A11AE260A128A1183120313CB
:100878004908D3004808D2003A300A128A112627BC
:100888000A128A11831203132108D5002008D40004
:100898005408A0005508A1000030A11BFF30A20099
:1008A800A30001300A128A11F4250A128A11831250
:1008B80003132308B5002208B4002108B300200858
:1008C800B2004030B1000230B000F130AF00AA30C1
:1008D800AE000A128A1117220A128A118312031310
:1008E8003108CB003008CA002F08C9002E08C800FC
:1008F8000A128A11AE260A128A11831203134908B2
:10090800D5004808D40080300A128A1518270A1220
:100918008A11123083120313A4008030A5000A1232
:100928008A15E9260A128A11831203135308BC0098
:100938005208BB000A128A11E6270A128A110B30E4
:1009480083120313A4008030A5000A128A15E92631
:100958000A128A11831203135508BC005408BB00FD
:100968000A128A11E6270A128A1132300A128A11EB
:1009780026270A128A11831203132108D700200898
:10098800D6005608A0005708A1000030A11BFF3070
:10099800A200A30001300A128A11F4250A128A1152
:1009A800831203132308B5002208B4002108B300FA
:1009B8002008B2004030B1000230B000F130AF0082
:1009C800AA30AE000A128A1117220A128A1183125B
:1009D80003133108CB003008CA002F08C9002E08BD
:1009E800C8000A128A11AE260A128A11831203134A
:1009F8004908D7004808D600C0300A128A151827B7
:100A08000A128A11183083120313A4008030A5003B
:100A18000A128A15E9260A128A1183120313570843
:100A2800BC005608BB000A128A11E6270A128A116E
:100A3800F92B0A128A110E2883120313B9002F30DA
:100A4800B400DF2D25303A0603192B2D2C2D362D19
:100A5800390884003A08831380000130B100310856
:100A6800B907DF2DB5010130AE07FF302E0784002E
:100A78000A128A11A0270A128A11BA00003A031929
:100A8800EF2D643A03194C2D0D3A03194C2DDF2D27
:100A98003408840083130008B700840A0008B800EB
:100AA8000230B1003108B407B81F5B2D5C2D652DED
:100AB8000330B1003108B504B709B809B70A0319FA
:100AC800B80ABA01BA0A3A08B1003107013E8400EF
:100AD8000A128A11A0270A128A11B2000A128A1170
:100AE800A0270A128A11B30033083802031D7E2D8D
:100AF800320837020318812D822D832D8D2D013068
:100B0800B1003108BA0705303A06031D8C2D8D2D2A
:100B1800672D350803390319922D932D9C2D39081B
:100B280084002D30831380000130B1003108B907EB
:100B38003A08B600D62D0A30A8000030A9003608B9
:100B4800B1003107013E84000A128A11A0270A1257
:100B58008A11A0000A128A11A0270A128A11A1007C
:100B68003808A3003708A2000A128A15BA270A1201
:100B78008A11831203132108AB002008AA000A1265
:100B88008A157E270A128A11831203132808303E19
:100B9800BA00390884003A08831380000130B10094
:100BA8003108B907FF30B1003108B607360A031D0E
:100BB800DE2DDF2D9F2D0130AE07FF302E0784007C
:100BC8000A128A11A0270A128A11BA003A08031DCC
:100BD800EE2DEF2D262D390884008313800108009F
:100BE80083120313A80028080319FB2DFC2D102ECF
:100BF800A31FFF2D002E102E2009AA002109AB00EB
:100C08002209AC002309AD00AA0A0319AB0A03198B
:100C1800AC0A0319AD0A182E2308AD002208AC004F
:100C28002108AB002008AA0023082204210420047C
:100C3800031D1F2E202E292E0030A3000030A200F5
:100C48000030A1000030A000AD2E9630A900392E4A
:100C58000130A4002408A90701300310AD0CAC0C26
:100C6800AB0CAA0CFF3E031D312EFE302D05031DD3
:100C78003E2E3F2E2C2E5B2E0130A4002408A907FF
:100C88000130AA07003003180130AB070030031801
:100C98000130AC07003003180130AD0701300310F4
:100CA800AD0CAC0CAB0CAA0CFF3E031D532EFF3051
:100CB8002D05031D602E612E402E6D2E0130A902D8
:100CC8000130A4000310AA0DAB0DAC0DAD0DA40BA3
:100CD800662EAC1B702E712E772E02302902031857
:100CE800762E772E622E29187A2E7B2E832EFF30B1
:100CF800AA05FF30AB057F30AC05FF30AD0503100A
:100D0800A90C2908A400A501A601A7011830031001
:100D1800A40DA50DA60DA70DFF3E031D8B2E2408BF
:100D2800AA042508AB042608AC042708AD04280843
:100D380003199F2EA02EA52EA31FA32EA42EA52EE9
:100D4800AD172D08A3002C08A2002B08A1002A0823
:100D5800A00008000310831203134A0D4B0DD100A5
:100D68005108031DB82EB92EC22E0030CB0000301A
:100D7800CA000030C9000030C800252F4808CC0040
:100D88004908CD004A08CE004B08CF001F30031099
:100D9800CF0CCE0CCD0CCC0CFF3E031DCB2E4C083B
:100DA800D000CA17FF30C805FF30C905FF30CA0593
:100DB8000030CB059630D102D11FE32EE42EFE2E53
:100DC8005108803A973E0318EA2EEB2EEC2EB92EE6
:100DD80001300310CB0CCA0CC90CC80CFF3E031D14
:100DE800ED2E0130CC004C08D107031DFC2EFD2E42
:100DF800EC2E152F20305102031C032F042F102F27
:100E0800B92E0130CC000310C80DC90DCA0DCB0D89
:100E1800CC0B072F0130D1025108031D142F152FB9
:100E2800052F50080319192F1A2F252FC809C9098A
:100E3800CA09CB09C80A0319C90A0319CA0A031936
:100E4800CB0A080083120313A40024081E3A031DCA
:100E58002E2F2F2F362F45309F006F08A3006E08C6
:100E6800A200912F2408223A031D3B2F3C2F432F29
:100E78004D309F006D08A3006C08A200912F240834
:100E8800263A031D482F492F502F55309F006B08D5
:100E9800A3006A08A200912F24082A3A031D552F9F
:100EA800562F5D2F5D309F006908A3006808A200D7
:100EB800912F24082E3A031D622F632F6A2F653065
:100EC8009F006708A3006608A200912F2408323A01
:100ED800031D6F2F702F772F6D309F006508A300BB
:100EE8006408A200912F2408363A031D7C2F7D2F19
:100EF800842F75309F006308A3006208A200912F19
:100F080024083A3A031D892F8A2F912F7D309F009C
:100F18006108A3006008A200912F2308A1002208FD
:100F2800A0000800FF1BA02F83137F188317000859
:100F3800840A0319FF0A080007308A000408840A93
:100F480082070034013400340A3400346434003435
:100F5800E834033410342734203454343134203402
:100F68003D34203400345434303420343D3420347B
:100F780000345434323420343D3420340034413485
:100F88004E343034003441344E343134003441343A
:100F98004E343234003441344E3433340034413426
:100FA8004E343434003441344E3435340034413412
:100FB8004E343634003441344E343734003425341A
:100FC800643400343E3083120313AE003C08B00092
:100FD8003B08AF003D300A128A1120250A128A11F7
:100FE8003D3083120313A4000030A5000A128A15AD
:080FF800E9260A128A11080023
:101D1000831603138601FF308500FF308900080019
:101D200064008001840A0406031900340406912E1D
:101D30008B170B17831603130C17413083120313F1
:101D40009F008030831603139F00080002300A12A0
:101D50008A1518270A128A1528300A128A15182798
:101D60000A128A150C300A128A1518270A128A15C7
:101D700004300A128A1518270A128A1501300A122D
:101D80008A1518270A128A150800831203132008DF
:101D9000A2002108A300D22E0130A2070318A30A33
:101DA0000030A3072308FF00220884000A128A11CA
:101DB00096270A128A15003A031DDF2EE02ECC2E3C
:101DC00020082202A0002108031C210A2302A100EE
:101DD0000800831203132408A0002508A1000A129A
:101DE0008A15C5260A128A15831203132008A70034
:101DF000A801112F28082407840025080318250AA4
:101E0000FF000A128A1196270A128A150A128A15E9
:101E10004B270A128A15013083120313A6002608E5
:101E2000A80727082802031C162F172FFA2E0800D0
:101E300083120313A2002208F039860006158610CB
:101E400006100D3083120313A100FB30A000A00B7D
:101E5000272FA10B272F8312031306112208A0009E
:101E600003300310A00DFF3E031D312F0310200D82
:101E7000F03986000615861006100D308312031304
:101E8000A100FB30A000A00B432FA10B432F831216
:101E900003130611080083120313A2002208F0396D
:101EA00086000615861006140D3083120313A10058
:101EB000FB30A000A00B5A2FA10B5A2F8312031343
:101EC00006112208A00003300310A00DFF3E031DE1
:101ED000642F0310200DF0398600061586100614B5
:101EE0000D3083120313A100FB30A000A00B762F4E
:101EF000A10B762F8312031306110800831203131C
:101F0000280829040319852F862FB52FAD01AD0AA6
:101F1000942F01300310A80DA90DFF3E031D8A2F39
:101F20000130AC002C08AD07A91F972F982F892FDF
:101F300029082B02031D9E2F28082A02031CA12F0B
:101F4000A22FA82F2808AA022908031CAB03AB0262
:101F500001300310A90CA80CFF3E031DA92F01306E
:101F6000AD02031DB42FB52F982F2B08A9002A0806
:101F7000A800080083120313A501A601200821046C
:101F80000319C32FC42FFB2FA701A70AD22F01309B
:101F90000310A00DA10DFF3E031DC82F0130A400AA
:101FA0002408A707A11FD52FD62FC72F0130031054
:101FB000A50DA60DFF3E031DD72F21082302031DEB
:101FC000E32F20082202031CE62FE72FEE2F200824
:101FD000A2022108031CA303A3022514013003104D
:101FE000A10CA00CFF3E031DEF2F0130A702031D23
:101FF000FA2FFB2FD62F2608A1002508A0000800E5
:08400000FF3FFF3FFF3FFF3FC0
:02400E00FB3F76
:00000001FF
