:060000000A128A11FB2F19
:100E2800831603130610871107168712080020304F
:100E3800831203139400831603139401080083128A
:100E4800031393018C1D292F2A2F262F130808001E
:100E5800700883120313930083160313141C352F91
:100E6800362F302F0800F40083120313061074087D
:100E7800F200F3017208F0007308F1000A128A11F7
:100E88002C270A128A118312031306140800F5008E
:100E98008312031306100330F0000030F1000A1229
:100EA8008A112C270A128A117508F300F4017308B5
:100EB800F0007408F1000A128A112C270A128A110C
:100EC8007208F300F4017308F0007408F1000A12C4
:100ED8008A112C270A128A1183160313141C752FE2
:100EE800762F702F0A128A1123270A128A11FA0004
:100EF8008312031306140800F60083120313061066
:100F08000230F0000030F1000A128A112C270A1270
:100F18008A117608F400F5017408F0007508F100EC
:100F28000A128A112C270A128A117208F400F50194
:100F38007408F0007508F1000A128A112C270A12A9
:100F48008A117308F400F5017408F0007508F100BF
:100F58000A128A112C270A128A1183120313061403
:100F680008000A128A1114270A128A110A128A1111
:100F78001B270A128A1105300A128A1137270A120A
:100F88008A114330F200FE30F30009300A128A1148
:100F980080270A128A111A30F9005E30F8006E3084
:100FA800F700F70BD52FF80BD52FF90BD52F00002D
:100FB80006300A128A1137270A128A111A30F900E4
:100FC8005E30F8006E30F700F70BE82FF80BE82FCB
:100FD800F90BE82F00004330F20009300A128A1199
:100FE8004B270A128A11F72F0A128A110028FA01D0
:080FF80083010A128A11B52FD2
:08400000FF3FFF3FFF3FFF3FC0
:02400E00FB3F76
:00000001FF
