:060000000A128A11FB2F19
:100E9A0083160313870108000C308312031397008B
:100EAA00FF30831603139200043083120313920057
:100EBA0008007108F3007008F2000310F30CF20C3A
:100ECA000310F30CF20C720883120313950017082F
:100EDA00CF3997007008F20003300310F20DFF3E7D
:100EEA00031D722F0310720D303917049700080082
:100EFA000A128A114D270A128A110A128A115127D7
:100F0A000A128A110030F0000230F1000A128A1126
:100F1A005E270A128A111A30F6005E30F5006E302A
:100F2A00F400F40B962FF50B962FF60B962F000074
:100F3A0083120313970107110C30831203139700CE
:100F4A000030F0000230F1000A128A115E270A12FC
:100F5A008A111A30F6005E30F5006E30F400F40B98
:100F6A00B42FF50BB42FF60BB42F00008312031322
:100F7A00970107111A30F6005E30F5006E30F40062
:100F8A00F40BC52FF50BC52FF60BC52F00000C303F
:100F9A008312031397000030F0000230F1000A12A6
:100FAA008A115E270A128A111A30F6005E30F5009D
:100FBA006E30F400F40BDF2FF50BDF2FF60BDF2F6B
:100FCA00000083120313970107111A30F6005E30EE
:100FDA00F5006E30F400F40BF02FF50BF02FF60B42
:100FEA00F02F0000A12F0A128A110028F7018301AD
:060FFA000A128A117D2F8E
:08400000FF3FFF3FFF3FFF3FC0
:02400E00FB3F76
:00000001FF
