:100000000A128A11E32FFF1B0D2883137F18831711
:100010000008840A0319FF0A080000308A00040857
:10002000840A82070034013400340A340034643412
:100030000034E8340334103427346B3465347934B5
:100040007034613464343D342034003454343D34ED
:1000500020340034253464340034233400342A340A
:0200600000346A
:10094200831603138601783087008312031307117D
:1009520087100710080001340234033400340434D1
:1009620005340634003407340834093400347E0870
:100972008A007F0882000A128A11B8240A128A1198
:100982008000840A04087D0603190034FF0A031953
:10099200FE0ABC2C183083120313A0002E08A200FA
:1009A2002D08A1002F300A128A1109270A128A1172
:1009B2002F30F4000030F5000A128A1126250A129F
:1009C2008A11080002300A128A1151250A128A116C
:1009D20028300A128A1151250A128A110C300A1281
:1009E2008A1151250A128A1104300A128A115125DC
:1009F2000A128A1101300A128A1151250A128A1129
:100A020008007008F2007108F3000D2D0130F207A2
:100A12000318F30A0030F307730883120313FF006D
:100A2200720884000A128A1103200A128A11003AFB
:100A3200031D1C2D1D2D072D70087202F000710878
:100A4200031C710A7302F10008007408F0007508B3
:100A5200F1000A128A1102250A128A117008F7009F
:100A6200F8014A2D78087407840075080318750A7E
:100A720083120313FF000A128A1103200A128A1139
:100A82000A128A1182250A128A110130F6007608AA
:100A9200F80777087802031C4F2D502D332D0800DC
:100AA200F2007208F03983120313860006158610CD
:100AB20006100D30F100FB30F000F00B5E2DF10B53
:100AC2005E2D632D8312031306117208F0000330AA
:100AD2000310F00DFF3E031D692D0310700DF03958
:100AE20086000615861006100D30F100FB30F0006E
:100AF200F00B792DF10B792D7E2D83120313061144
:100B02000800F2007208F0398312031386000615FA
:100B1200861006140D30F100FB30F000F00B8F2D23
:100B2200F10B8F2D942D8312031306117208F0001E
:100B320003300310F00DFF3E031D9A2D0310700DBC
:100B4200F03986000615861006140D30F100FB30D0
:100B5200F000F00BAA2DF10BAA2DAF2D8312031377
:100B620006110800780879040319B82DB92DE82D6B
:100B7200FD01FD0AC72D01300310F80DF90DFF3EEE
:100B8200031DBD2D0130FC007C08FD07F91FCA2D95
:100B9200CB2DBC2D79087B02031DD12D78087A025A
:100BA200031CD42DD52DDB2D7808FA027908031CFD
:100BB200FB03FB0201300310F90CF80CFF3E031D8E
:100BC200DC2D0130FD02031DE72DE82DCB2D7B0826
:100BD200F9007A08F8000800F501F60170087104BE
:100BE2000319F42DF52D2C2EF701F70A032E0130EF
:100BF2000310F00DF10DFF3E031DF92D0130F4003D
:100C02007408F707F11F062E072EF82D0130031086
:100C1200F50DF60DFF3E031D082E71087302031D2C
:100C2200142E70087202031C172E182E1F2E700825
:100C3200F2027108031CF303F3027514013003106E
:100C4200F10CF00CFF3E031D202E0130F702031DB4
:100C52002B2E2C2E072E7608F1007508F0000800C6
:100C620083120313D201CE01CF01D00152084E3EAE
:100C7200840083138001800A4E0C031C07100318A2
:100C820007144F0C031C871003188714500C031C05
:100C9200071103180715003087190130CA00003008
:100CA200071A0130CB000030871A0130CC00003027
:100CB200071B0130CD00D10151084A3E84000003D8
:100CC200031D642E652E692E5108D4005208D300EC
:100CD2000130F0007008D10704305102031C722E5B
:100CE200732E5D2E0130F0007008D20703305202DD
:100CF200031C7C2E7D2E342E08000A128A11A12498
:100D02000A128A110A128A11E3240A128A11143071
:100D1200F4008030F5000A128A1126250A128A117F
:100D22000A128A1131260A128A1180300A128A1195
:100D320051250A128A110B30F4008030F5000A1294
:100D42008A1126250A128A11831203135408B90044
:100D520002300310B90DFF3E031DAA2E3E303907A3
:100D6200BA0053083A07BB003B088400831300080B
:100D7200BC00BD013C08AD003D08AE000A128A115C
:100D8200CB240A128A110330831203135406031D63
:100D9200CB2ECC2EDB2E02305306031DD12ED22EAB
:100DA200DB2E1B30F4008030F5000A128A11262552
:100DB2000A128A110330831203135406031DE22E12
:100DC200E32EF12E5308031DE72EE82EF12E1D30DF
:100DD200F4008030F5000A128A1126250A128A11BF
:100DE200063083120313BB001330BA00AD30B900D2
:100DF200B90BF92EBA0BF92EBB0BF92E01300A12E0
:100E02008A1151250A128A11912E0A128A1100287A
:100E120083120313AB002130A600CE2F25302C06FF
:100E22000319142F152F1F2F2B0884002C0883134E
:100E320080000130A3002308AB07CE2FA7010130A9
:100E4200A007FF30200784000A128A110D200A121F
:100E52008A11AC00A300A4012408003A0319322F1E
:100E6200CE2F2308003A0319DE2F643A03193D2FCF
:100E72000D3A03193D2FCE2F260884008313000854
:100E8200A900840A0008AA000230A3002308A607CA
:100E9200AA1F4C2F4D2F562F0330A3002308A7045F
:100EA200A909AA09A90A0319AA0AAC01AC0A2C08C1
:100EB200A3002307013E84000A128A110D200A12A0
:100EC2008A11A4000A128A110D200A128A11A500A1
:100ED20025082A02031D6F2F240829020318722FE6
:100EE200732F742F7E2F0130A3002308AC07053027
:100EF2002C06031D7D2F7E2F582F27080339031937
:100F0200832F842F8D2F2B0884002D308313800094
:100F12000130A3002308AB072C08A800C52F0A3014
:100F2200F8000030F9002808A3002307013E8400DE
:100F32000A128A110D200A128A11F0000A128A116D
:100F42000D200A128A11F1002A08F3002908F20082
:100F52000A128A11ED250A128A117108FB00700823
:100F6200FA000A128A11B3250A128A117808303E51
:100F720083120313AC002B0884002C088313800017
:100F82000130A3002308AB07FF30A3002308A80702
:100F9200280A031DCD2FCE2F902F0130A007FF303E
:100FA200200784000A128A110D200A128A11AC004D
:100FB2002C08031DDD2FDE2F0F2F2B088400831337
:100FC2008001080083134A30FD000430FE00AC307B
:100FD200FF003E3084000A128A11BC240A128A11D0
:100FE200CA01CB01CC01CD01CE01CF01D001D1018B
:0E0FF200D201D301D40183010A128A117E2E8E
:08400000FF3FFF3FFF3FFF3FC0
:02400E00FB3F76
:00000001FF
