:060000000A128A110E280D
:10000800FE00030EF9000408FA000A08FB000A12B1
:100018008A1126280A128A11112883133C30FD0000
:100028000230FE00E530FF00303084000A128A11E9
:10003800D6220A128A11C201FC01FD0183010A12AB
:100048008A11802A0B1D29282A28BC2804307D0201
:10005800031C2F2830283128FD017D08031D352871
:10006800362852280030F000F1000130F20000304C
:10007800F3000130F4000030F5000130F6000030E4
:10008800F7000A128A11BB220A128A11831203137B
:100098004008303E84008313000886007D03031D5A
:1000A8005628572873280130F0000030F10000303E
:1000B800F200F3000130F4000030F5000130F600E2
:1000C8000030F7000A128A11BB220A128A11831221
:1000D80003133F08303E8400831300088600023073
:1000E8007D06031D7828792895280130F000003016
:1000F800F1000130F2000030F3000030F400F500A8
:100108000130F6000030F7000A128A11BB220A12E9
:100118008A11831203133D08303E840083130008BC
:10012800860003307D06031D9A289B28B7280130D6
:10013800F0000030F1000130F2000030F30001302F
:10014800F4000030F5000030F600F7000A128A11BA
:10015800BB220A128A11831203133C08303E840022
:100168008313000886000130F8007808FD070B119A
:100178007B088A007A088400790E8300FE0E7E0EC2
:100188000900643083120313A0000030A1002A087C
:10019800A3002908A2000A128A11FE210A128A1154
:1001A800831203132008C1000A30A0000030A10008
:1001B8004108AB00AC012B08A2002C08A3000A12CE
:1001C8008A113A210A128A11831203132008C000E7
:1001D8000A30A0000030A1004108AB00AC012B0898
:1001E800A2002C08A3000A128A11A3210A128A115C
:1001F800831203132008BF006430A0000030A10060
:100208002A08A3002908A2000A128A1144220A1205
:100218008A11831203132008BE000A30A0000030A0
:10022800A1003E08AB00AC012B08A2002C08A300DB
:100238000A128A113A210A128A118312031320081A
:10024800BD000A30A0000030A1003E08AB00AC01A0
:100258002B08A2002C08A3000A128A11A3210A1253
:100268008A11831203132008BC00080083120313A9
:10027800A601A11F402941294829A009A109A00ACE
:100288000319A10AA601A60AA31F4B294C2955291F
:10029800A209A309A20A0319A30A0130A400240889
:1002A800A606A701A8012008210403195C295D29D5
:1002B8009429A501A50A6B2901300310A00DA10DF1
:1002C800FF3E031D61290130A4002408A507A11FD2
:1002D8006E296F29602901300310A70DA80DFF3E74
:1002E800031D702921082302031D7C2920082202EE
:1002F800031C7F29802987292008A2022108031CC2
:10030800A303A302271401300310A10CA00CFF3E85
:10031800031D88290130A502031D932994296F29FB
:1003280026080319982999299E29A709A809A70A1F
:100338000319A80A2808A1002708A00008008312AA
:100348000313A601A31FA929AA29B129A209A30950
:10035800A20A0319A30AA601A60AA11FB429B5294E
:10036800BA29A009A109A00A0319A10A2008210491
:100378000319BF29C029EF29A501A50ACE290130F3
:100388000310A00DA10DFF3E031DC4290130A400D8
:100398002408A507A11FD129D229C329210823028E
:1003A800031DD82920082202031CDB29DC29E229A5
:1003B8002008A2022108031CA303A3020130031092
:1003C800A10CA00CFF3E031DE3290130A502031D6B
:1003D800EE29EF29D22926080319F329F429F92946
:1003E800A209A309A20A0319A30A2308A100220843
:1003F800A000080083120313A501A6012008210408
:100408000319072A082A3F2AA701A70A162A013032
:100418000310A00DA10DFF3E031D0C2A0130A400FE
:100428002408A707A11F192A1A2A0B2A013003102A
:10043800A50DA60DFF3E031D1B2A21082302031D3F
:10044800272A20082202031C2A2A2B2A322A2008BB
:10045800A2022108031CA303A302251401300310E0
:10046800A10CA00CFF3E031D332A0130A702031D77
:100478003E2A3F2A1A2A2608A1002508A0000800BB
:10048800831203132008210403194B2A4C2A7B2AC0
:10049800A501A50A5A2A01300310A00DA10DFF3E9F
:1004A800031D502A0130A4002408A507A11F5D2AB6
:1004B8005E2A4F2A21082302031D642A20082202EB
:1004C800031C672A682A6E2A2008A2022108031C36
:1004D800A303A30201300310A10CA00CFF3E031DCF
:1004E8006F2A0130A502031D7A2A7B2A5E2A230877
:1004F800A1002208A00008000A128A11FD220A128F
:100508008A110A128A11F1220A128A11831203131C
:100518003B08AA003A08A9000A128A11C5200A1243
:100528008A11013083120313BA070318BB0A00307B
:10053800BB0727303B02103003193A02031CA52AD7
:10054800A62AA82ABA01BB011A3083120313AF00E6
:100558005E30AE006D30AD00AD0BB02AAE0BB02AE8
:10056800AF0BB02AB72A8A2A0A128A110E28700CF1
:1005780083120313031C071003180714720C031CBF
:10058800871003188714740C031C07110318071528
:10059800760C031C87110318871508007E088A004B
:1005A8007F0882000A128A11D2220A128A11800058
:1005B800840A04087D0603190034FF0A0319FE0A99
:1005C800D62A3F3406345B344F3466346D347D3478
:1005D80007347F346F34FC3426348B170B178B1693
:1005E80007308316031381003B3083120313810005
:1005F80008008316031386018701831203138701FA
:04060800860108005F
:08400000FF3FFF3FFF3FFF3FC0
:02400E00FB3F76
:00000001FF
