:060000000A128A11FB2F19
:100F0800831603130610871107168712080020306E
:100F180083120313940083160313940108008312A9
:100F2800031393018C1D992F9A2F962F13080800ED
:100F3800700883120313930083160313141CA52F40
:100F4800A62FA02F0800F4008312031306107408BC
:100F5800F200F3017208F0007308F1000A128A1116
:100F68009C270A128A1183120313061408000A1216
:100F78008A1184270A128A110A128A118B270A12E7
:100F88008A1105300A128A11A7270A128A111A3003
:100F9800F7005E30F6006E30F500F50BD12FF60B3A
:100FA800D12FF70BD12F000006300A128A11A7277C
:100FB8000A128A110A128A1193270A128A11F80052
:100FC8001A30F7005E30F6006E30F500F50BEA2FA8
:100FD800F60BEA2FF70BEA2F000078080A128A119D
:100FE800A7270A128A11F72F0A128A110028F80176
:080FF80083010A128A11BB2FCC
:08400000FF3FFF3FFF3FFF3FC0
:02400E00FB3F76
:00000001FF
