:060000000A128A11EC2F28
:100B4A008316031386018701831203138701860123
:100B5A0008003F3406345B344F3466346D347D34D8
:100B6A0007347F346F34A63407347E088A007F083E
:100B7A0082000A128A11BA250A128A118000840A8E
:100B8A0004087D0603190034FF0A0319FE0ABE2D64
:100B9A000A128A11A5250A128A11831203132B0835
:100BAA00FA002A08F9000A128A1127270A128A115A
:100BBA00013083120313AA070318AB0A0030AB07EC
:100BCA00D22D0A128A110028700871040319EE2D19
:100BDA00EF2D1E2EF501F50AFD2D01300310F00D43
:100BEA00F10DFF3E031DF32D0130F4007408F507E3
:100BFA00F11F002E012EF22D71087302031D072E1C
:100C0A0070087202031C0A2E0B2E112E7008F202B3
:100C1A007108031CF303F30201300310F10CF00C0A
:100C2A00FF3E031D122E0130F502031D1D2E1E2E3E
:100C3A00012E7308F1007208F0000800F501F601B0
:100C4A007008710403192A2E2B2E622EF701F70A57
:100C5A00392E01300310F00DF10DFF3E031D2F2E2A
:100C6A000130F4007408F707F11F3C2E3D2E2E2E9A
:100C7A0001300310F50DF60DFF3E031D3E2E7108DF
:100C8A007302031D4A2E70087202031C4D2E4E2E4B
:100C9A00552E7008F2027108031CF303F30275144F
:100CAA0001300310F10CF00CFF3E031D562E0130EB
:100CBA00F702031D612E622E3D2E7608F10075089B
:100CCA00F0000800F601F31F6B2E6C2E732EF2094A
:100CDA00F309F20A0319F30AF601F60AF11F762E4E
:100CEA00772E7C2EF009F109F00A0319F10A70082F
:100CFA0071040319812E822EB12EF501F50A902E68
:100D0A0001300310F00DF10DFF3E031D862E013058
:100D1A00F4007408F507F11F932E942E852E71089E
:100D2A007302031D9A2E70087202031C9D2E9E2EBA
:100D3A00A42E7008F2027108031CF303F3020130B7
:100D4A000310F10CF00CFF3E031DA52E0130F50235
:100D5A00031DB02EB12E942E76080319B52EB62E89
:100D6A00BB2EF209F309F20A0319F30A7308F10018
:100D7A007208F0000800F601F11FC42EC52ECC2E11
:100D8A00F009F109F00A0319F10AF601F60AF31F4C
:100D9A00CF2ED02ED92EF209F309F20A0319F30A3B
:100DAA000130F4007408F606F701F80170087104BE
:100DBA000319E02EE12E182FF501F50AEF2E013066
:100DCA000310F00DF10DFF3E031DE52E0130F40076
:100DDA007408F507F11FF22EF32EE42E01300310EA
:100DEA00F70DF80DFF3E031DF42E71087302031D63
:100DFA00002F70087202031C032F042F0B2F700898
:100E0A00F2027108031CF303F30277140130031092
:100E1A00F10CF00CFF3E031D0C2F0130F502031DEF
:100E2A00172F182FF32E760803191C2F1D2F222F88
:100E3A00F709F809F70A0319F80A7808F100770898
:100E4A00F00008006430F0000030F1007A08F30086
:100E5A007908F2000A128A1123260A128A117008E6
:100E6A0083120313B1000A30F0000030F100310898
:100E7A00FB00FC017B08F2007C08F3000A128A11CD
:100E8A00C0260A128A11700883120313B0000A30AE
:100E9A00F0000030F1003108FB00FC017B08F20091
:100EAA007C08F3000A128A1167260A128A1170084E
:100EBA0083120313AF006430F0000030F1007A08A7
:100ECA00F3007908F2000A128A11E9250A128A1136
:100EDA00700883120313AE000A30F0000030F100EC
:100EEA002E08FB00FC017B08F2007C08F3000A12C2
:100EFA008A11C0260A128A11700883120313AD00E0
:100F0A000A30F0000030F1002E08FB00FC017B08DB
:100F1A00F2007C08F3000A128A1167260A128A1163
:100F2A00700883120313AC0007108714071587157E
:100F3A003008203E84008313000886004130FC00FC
:100F4A00EE30FB00FB0BA72FFC0BA72F0000831230
:100F5A00031307148710071587152F08203E8400EE
:100F6A008313000886004130FC00EE30FB00FB0BC7
:100F7A00BC2FFC0BBC2F0000831203130714871429
:100F8A00071187152D08203E840083130008860068
:100F9A004130FC00EE30FB00FB0BD12FFC0BD12FB4
:100FAA0000008312031307148714071587112C08EE
:100FBA00203E84008313000886004130FC00EE3096
:100FCA00FB00FB0BE62FFC0BE62F00000800831347
:100FDA002C30FD000530FE00AE30FF0020308400CA
:100FEA000A128A11BE250A128A11B201FD01830171
:060FFA000A128A11CD2D40
:08400000FF3FFF3FFF3FFF3FC0
:02400E00FB3F76
:00000001FF
